:1000000003C01895189515C01124CFE9CDBF1FBEA8
:1000100025C08091600091E0980F292F2370233034
:1000200029F48F578C7F809360000895909360002F
:1000300008951F920F920FB60F9211248F93809103
:100040006300882329F080916300815080936300CE
:100050008F910F900FBE0F901F90189583E087BB74
:100060008CEF88BB80E886BD85E086BD81E083BFDC
:100070001092630092E099BF789490E295BF479AFE
:1000800085BD21E030E0309362002093610090E173
:100090009093630093EB9FBD83BF8FEF86BF19BC26
:1000A000C0E0D0E0A0E0B0E000E010E0E0E0F0E090
:1000B00020E1A22E34E1B32E42E1942EEE24EA9404
:1000C000F12C80916100909162009C0136952795FA
:1000D00080FF02C084EB38273093620020936100D8
:1000E0002130310509F4A5C04C2D50E0C9019927F4
:1000F0008417950709F490C060916000962F937063
:10010000D92EA90156954795569547954F71552774
:100110004F555F4F4A1B5B0BC40FD51FCE01D7FD58
:10012000AFC09595879595958795A80FB91FCD0177
:10013000805B910997FDA2C09595879595958795C8
:1001400095958795A81BB90B0024220F331F001C1F
:10015000220F331F001C232F302D67FD6CC02F771B
:100160003327C901805C9F4F8E1B9F0B080F191FFF
:10017000C80117FD87C095958795959587959595A5
:100180008795E80FF91FCF018058910997FD7CC032
:10019000082E892F000C881F990B000C881F991FAF
:1001A000E81BF90BA034B1056CF1A13EB1050CF4CC
:1001B00078C024ECA0EEB0E0E031F10504F1E13FBD
:1001C000F10524F0E0EFF0E001C088958091630034
:1001D0008111FBCFDD20E9F081E0D81217C09092A9
:1001E0006300CF01622F70E061D0909596BFC70188
:1001F0008E1B9F0B622F70E059D099BD62CFE0E15A
:10020000F0E0E4CF20E1A0E4B0E0D6CFB09263000C
:10021000E8CFA0926300E5CF8091600061E0680FB5
:10022000962F9370D92E93E0D91681F160936000D8
:1002300068CFC39459CF3170C901805891098E1B82
:100240009F0B080F191FC80117FD29C095958795A9
:10025000959587959595879595958795E80FF91FBD
:10026000CF018058910997FD18C095958795959570
:10027000879595958795E81BF90B94CF07965CCFEA
:1002800003964FCF079677CFCF9682CF61E8680F5E
:100290006C7F60936000D12C34CF0796E6CF0F9629
:1002A000D5CFCD01BD0102D0292F86CF00245527FF
:1002B00004C0080E591F880F991F009729F07695E2
:0E02C0006795B8F37105B9F7802D952F089555
:00000001FF
