:1000000003C01895189533C01124CFE9CDBF1FBE8A
:1000100043C092E09EBBE09A9DB3909360009F3FE7
:1000200019F1292F2370233019F49C7F90936000DD
:100030008823A9F09091600081E0890F282F237018
:10004000233071F0809360009FB7F8941CBA22E0CF
:100050002EBB8DBBE29AE19AE199FECF9FBF089536
:1000600081E8890F8C7FEECF10926000E1CF1F9264
:100070000F920FB60F9211248F9380916300882303
:1000800029F0809163008150809363008F910F90DD
:100090000FBE0F901F901895CF93DF931F92CDB78F
:1000A000DD2783E087BB8CEF88BB80E886BD85E0D9
:1000B00086BD81E083BF1092630082E089BF78949F
:1000C00080E285BF479A21E025BD81E090E09093D2
:1000D00062008093610080E18093630083EB8FBDB9
:1000E00023BF80E096DF8FEF86BF19BCC12CD12CD7
:1000F00000E010E0E12CF12C212C312C60E1862E67
:1001000099249A9472E0572EE3E06E2EF4E17F2E4C
:10011000AA24AA94B12C80916100909162009C0164
:100120003695279580FF02C084EB38273093620014
:1001300020936100C90196958795969587958F7153
:1001400099278F559F4F801B910BC80ED91EC60152
:10015000D7FC02C19595879595958795800F911F3E
:10016000AC01405B510957FDF4C055954795559535
:100170004795559547958C01041B150B40916000E0
:100180000024220F331F001C220F331F001C232FBB
:10019000302D47FDBBC02F773327205C3F4F2219FE
:1001A0003309E20EF31EC701F7FCDBC09595879576
:1001B0009595879595958795820D931D9C0120585F
:1001C000310937FDCBC0022E232F000C221F330B29
:1001D000000C221F331F1C01221A330A00341105A0
:1001E0000CF48AC0013E11050CF4C4C024EC00EEEE
:1001F00010E0E0E12E1631040CF47AC0F1EF2F1676
:1002000031041CF080EF282E312CB4994EC081E0CF
:100210002983FFDE17BA8FE086BF80EF89BD94E0A7
:1002200029819092630080916300882329F088954A
:10023000809163008111FBCF915099F7409160004C
:1002400047FD91C092E051E091509092630030914F
:100250006300332329F08895809163008111FBCFDF
:100260009092630030916300332329F08895809148
:1002700063008111FBCF842F8370813089F170F18D
:10028000823009F467BA709263008091630088231A
:1002900029F08895809163008111FBCF17BA9923CB
:1002A00009F140916000D0CF889580916300811161
:1002B000FBCF437041F1413019F582E18093630037
:1002C000C101622F70E05BD0909596BFC501821985
:1002D0009309622F70E053D099BD1DCF57BBD3CF88
:1002E00057BAD1CF67BAB49BFECF40916000DDCF43
:1002F00090E1292E312C89CF20E100E410E079CF64
:1003000070926300DDCF80926300DACF31702058A5
:10031000310922193309E20EF31EC701F7FC28C088
:1003200095958795959587959595879595958795B5
:10033000820D931D9C012058310937FD16C035955B
:10034000279535952795359527951C01221A330A4F
:1003500045CF495F5F4F09CF0396FCCE215C3F4FED
:1003600032CF079623CF94E06ECF295F3F4FE7CF80
:100370000F96D6CFC801B80102D0292F3ACF00245A
:10038000552704C0080E591F880F991F009729F0A0
:1003900076956795B8F37105B9F7802D952F089577
:00000001FF
