:1000000003C01895189505C01124CFE9CDBF1FBEB8
:1000100015C01F920F920FB60F9211248F938091EB
:100020006200882329F080916200815080936200F1
:100030008F910F900FBE0F901F90189583E087BB94
:1000400084EE88BB80E886BD85E086BD81E083BF05
:100050001092620082E089BF789480E285BF479A5F
:1000600021E025BD81E090E09093610080936000E5
:1000700080E18093620083EB8FBD23BF8FEF86BF4B
:1000800019BCA0E0B0E0E0E0F0E0C0E0D0E020E0AB
:1000900030E040E1E42E54E1F52E0FEF10E08091C6
:1000A000600090916100BC017695679580FF02C069
:1000B00044EB74277093610060936000CB019695C8
:1000C0008795969587958F7199278F559F4F8E1B92
:1000D0009F0BA80FB91FCD01B7FDA2C095958795BD
:1000E000959587958E0F9F1FAC01405B510957FD79
:1000F00094C0559547955595479555954795FC015D
:10010000E41BF50B0024660F771F001C660F771F9A
:10011000001C672F702DB39B51C07170605871091E
:10012000621B730BC60FD71FCE01D7FD80C09595FC
:100130008795959587959595879595958795820F40
:10014000931F9C012058310937FD73C035952795C1
:100150003595279535952795AC01421B530B9A0190
:10016000E034F1050CF452C0E13EF1050CF464C03A
:1001700044ECE0EEF0E020313105ECF0213F3105B8
:1001800024F020EF30E001C0889580916200811159
:10019000FBCFB49B3FC0F0926200C901642F70E0B6
:1001A00050D0909596BFC801821B930B642F70E0CE
:1001B00048D099BD74CF20E130E0E7CF6F77772743
:1001C000605C7F4F621B730BC60FD71FCE01D7FD3C
:1001D0002CC0959587959595879595958795820FD0
:1001E000931F9C012058310937FD1CC0022E232F7C
:1001F000000C221F330B000C221F331FAC01421BCB
:10020000530B9A01E034F1050CF0AECF40E1E0E48D
:10021000F0E0B1CFE0926200C0CF495F5F4F69CF9D
:1002200003965CCF215C3F4FE1CF0796D2CF0F966C
:100230007ECF295F3F4F8ACFCF01BF0102D0492F28
:100240009ACF0024552704C0080E591F880F991F04
:10025000009729F076956795B8F37105B9F7802D69
:04026000952F089539
:00000001FF
